{
  "_format": "hh-sol-artifact-1",
  "contractName": "MyOApp",
  "sourceName": "contracts/MyOApp.sol",
  "abi": [
    {
      "inputs": [
        {
          "internalType": "address",
          "name": "_endpoint",
          "type": "address"
        },
        {
          "internalType": "address",
          "name": "_owner",
          "type": "address"
        }
      ],
      "stateMutability": "nonpayable",
      "type": "constructor"
    },
    {
      "inputs": [
        {
          "internalType": "uint256",
          "name": "requested",
          "type": "uint256"
        },
        {
          "internalType": "uint256",
          "name": "available",
          "type": "uint256"
        }
      ],
      "name": "InsufficientLiquidity",
      "type": "error"
    },
    {
      "inputs": [
        {
          "internalType": "uint256",
          "name": "provided",
          "type": "uint256"
        },
        {
          "internalType": "uint256",
          "name": "required",
          "type": "uint256"
        }
      ],
      "name": "InsufficientMsgValue",
      "type": "error"
    },
    {
      "inputs": [],
      "name": "InvalidDelegate",
      "type": "error"
    },
    {
      "inputs": [],
      "name": "InvalidEndpointCall",
      "type": "error"
    },
    {
      "inputs": [
        {
          "internalType": "bytes",
          "name": "options",
          "type": "bytes"
        }
      ],
      "name": "InvalidOptions",
      "type": "error"
    },
    {
      "inputs": [],
      "name": "LzTokenUnavailable",
      "type": "error"
    },
    {
      "inputs": [
        {
          "internalType": "uint32",
          "name": "eid",
          "type": "uint32"
        }
      ],
      "name": "NoPeer",
      "type": "error"
    },
    {
      "inputs": [
        {
          "internalType": "uint256",
          "name": "msgValue",
          "type": "uint256"
        }
      ],
      "name": "NotEnoughNative",
      "type": "error"
    },
    {
      "inputs": [
        {
          "internalType": "address",
          "name": "addr",
          "type": "address"
        }
      ],
      "name": "OnlyEndpoint",
      "type": "error"
    },
    {
      "inputs": [
        {
          "internalType": "uint32",
          "name": "eid",
          "type": "uint32"
        },
        {
          "internalType": "bytes32",
          "name": "sender",
          "type": "bytes32"
        }
      ],
      "name": "OnlyPeer",
      "type": "error"
    },
    {
      "inputs": [
        {
          "internalType": "address",
          "name": "owner",
          "type": "address"
        }
      ],
      "name": "OwnableInvalidOwner",
      "type": "error"
    },
    {
      "inputs": [
        {
          "internalType": "address",
          "name": "account",
          "type": "address"
        }
      ],
      "name": "OwnableUnauthorizedAccount",
      "type": "error"
    },
    {
      "inputs": [
        {
          "internalType": "address",
          "name": "token",
          "type": "address"
        }
      ],
      "name": "SafeERC20FailedOperation",
      "type": "error"
    },
    {
      "anonymous": false,
      "inputs": [
        {
          "components": [
            {
              "internalType": "uint32",
              "name": "eid",
              "type": "uint32"
            },
            {
              "internalType": "uint16",
              "name": "msgType",
              "type": "uint16"
            },
            {
              "internalType": "bytes",
              "name": "options",
              "type": "bytes"
            }
          ],
          "indexed": false,
          "internalType": "struct EnforcedOptionParam[]",
          "name": "_enforcedOptions",
          "type": "tuple[]"
        }
      ],
      "name": "EnforcedOptionSet",
      "type": "event"
    },
    {
      "anonymous": false,
      "inputs": [
        {
          "indexed": true,
          "internalType": "address",
          "name": "previousOwner",
          "type": "address"
        },
        {
          "indexed": true,
          "internalType": "address",
          "name": "newOwner",
          "type": "address"
        }
      ],
      "name": "OwnershipTransferred",
      "type": "event"
    },
    {
      "anonymous": false,
      "inputs": [
        {
          "indexed": false,
          "internalType": "uint32",
          "name": "eid",
          "type": "uint32"
        },
        {
          "indexed": false,
          "internalType": "bytes32",
          "name": "peer",
          "type": "bytes32"
        }
      ],
      "name": "PeerSet",
      "type": "event"
    },
    {
      "anonymous": false,
      "inputs": [
        {
          "indexed": true,
          "internalType": "address",
          "name": "merchant",
          "type": "address"
        },
        {
          "indexed": false,
          "internalType": "address",
          "name": "token",
          "type": "address"
        },
        {
          "indexed": false,
          "internalType": "uint256",
          "name": "amount",
          "type": "uint256"
        }
      ],
      "name": "TokenPayoutExecuted",
      "type": "event"
    },
    {
      "anonymous": false,
      "inputs": [
        {
          "indexed": true,
          "internalType": "uint32",
          "name": "dstEid",
          "type": "uint32"
        },
        {
          "indexed": true,
          "internalType": "address",
          "name": "payer",
          "type": "address"
        },
        {
          "indexed": true,
          "internalType": "address",
          "name": "merchant",
          "type": "address"
        },
        {
          "indexed": false,
          "internalType": "address",
          "name": "srcToken",
          "type": "address"
        },
        {
          "indexed": false,
          "internalType": "address",
          "name": "dstToken",
          "type": "address"
        },
        {
          "indexed": false,
          "internalType": "uint256",
          "name": "grossAmount",
          "type": "uint256"
        },
        {
          "indexed": false,
          "internalType": "uint256",
          "name": "netAmount",
          "type": "uint256"
        },
        {
          "indexed": false,
          "internalType": "uint256",
          "name": "feeAmount",
          "type": "uint256"
        }
      ],
      "name": "TokenPayoutRequested",
      "type": "event"
    },
    {
      "inputs": [],
      "name": "FEE_BPS",
      "outputs": [
        {
          "internalType": "uint16",
          "name": "",
          "type": "uint16"
        }
      ],
      "stateMutability": "view",
      "type": "function"
    },
    {
      "inputs": [],
      "name": "PAYOUT",
      "outputs": [
        {
          "internalType": "uint16",
          "name": "",
          "type": "uint16"
        }
      ],
      "stateMutability": "view",
      "type": "function"
    },
    {
      "inputs": [],
      "name": "SEND",
      "outputs": [
        {
          "internalType": "uint16",
          "name": "",
          "type": "uint16"
        }
      ],
      "stateMutability": "view",
      "type": "function"
    },
    {
      "inputs": [],
      "name": "TAG_TOKEN_PAYOUT",
      "outputs": [
        {
          "internalType": "uint8",
          "name": "",
          "type": "uint8"
        }
      ],
      "stateMutability": "view",
      "type": "function"
    },
    {
      "inputs": [
        {
          "components": [
            {
              "internalType": "uint32",
              "name": "srcEid",
              "type": "uint32"
            },
            {
              "internalType": "bytes32",
              "name": "sender",
              "type": "bytes32"
            },
            {
              "internalType": "uint64",
              "name": "nonce",
              "type": "uint64"
            }
          ],
          "internalType": "struct Origin",
          "name": "origin",
          "type": "tuple"
        }
      ],
      "name": "allowInitializePath",
      "outputs": [
        {
          "internalType": "bool",
          "name": "",
          "type": "bool"
        }
      ],
      "stateMutability": "view",
      "type": "function"
    },
    {
      "inputs": [
        {
          "internalType": "uint32",
          "name": "_eid",
          "type": "uint32"
        },
        {
          "internalType": "uint16",
          "name": "_msgType",
          "type": "uint16"
        },
        {
          "internalType": "bytes",
          "name": "_extraOptions",
          "type": "bytes"
        }
      ],
      "name": "combineOptions",
      "outputs": [
        {
          "internalType": "bytes",
          "name": "",
          "type": "bytes"
        }
      ],
      "stateMutability": "view",
      "type": "function"
    },
    {
      "inputs": [
        {
          "internalType": "uint32",
          "name": "",
          "type": "uint32"
        },
        {
          "internalType": "address",
          "name": "",
          "type": "address"
        }
      ],
      "name": "dstTokenByDstEidAndSrcToken",
      "outputs": [
        {
          "internalType": "address",
          "name": "",
          "type": "address"
        }
      ],
      "stateMutability": "view",
      "type": "function"
    },
    {
      "inputs": [],
      "name": "endpoint",
      "outputs": [
        {
          "internalType": "contract ILayerZeroEndpointV2",
          "name": "",
          "type": "address"
        }
      ],
      "stateMutability": "view",
      "type": "function"
    },
    {
      "inputs": [
        {
          "internalType": "uint32",
          "name": "eid",
          "type": "uint32"
        },
        {
          "internalType": "uint16",
          "name": "msgType",
          "type": "uint16"
        }
      ],
      "name": "enforcedOptions",
      "outputs": [
        {
          "internalType": "bytes",
          "name": "enforcedOption",
          "type": "bytes"
        }
      ],
      "stateMutability": "view",
      "type": "function"
    },
    {
      "inputs": [
        {
          "components": [
            {
              "internalType": "uint32",
              "name": "srcEid",
              "type": "uint32"
            },
            {
              "internalType": "bytes32",
              "name": "sender",
              "type": "bytes32"
            },
            {
              "internalType": "uint64",
              "name": "nonce",
              "type": "uint64"
            }
          ],
          "internalType": "struct Origin",
          "name": "",
          "type": "tuple"
        },
        {
          "internalType": "bytes",
          "name": "",
          "type": "bytes"
        },
        {
          "internalType": "address",
          "name": "_sender",
          "type": "address"
        }
      ],
      "name": "isComposeMsgSender",
      "outputs": [
        {
          "internalType": "bool",
          "name": "",
          "type": "bool"
        }
      ],
      "stateMutability": "view",
      "type": "function"
    },
    {
      "inputs": [],
      "name": "lastMessage",
      "outputs": [
        {
          "internalType": "string",
          "name": "",
          "type": "string"
        }
      ],
      "stateMutability": "view",
      "type": "function"
    },
    {
      "inputs": [
        {
          "components": [
            {
              "internalType": "uint32",
              "name": "srcEid",
              "type": "uint32"
            },
            {
              "internalType": "bytes32",
              "name": "sender",
              "type": "bytes32"
            },
            {
              "internalType": "uint64",
              "name": "nonce",
              "type": "uint64"
            }
          ],
          "internalType": "struct Origin",
          "name": "_origin",
          "type": "tuple"
        },
        {
          "internalType": "bytes32",
          "name": "_guid",
          "type": "bytes32"
        },
        {
          "internalType": "bytes",
          "name": "_message",
          "type": "bytes"
        },
        {
          "internalType": "address",
          "name": "_executor",
          "type": "address"
        },
        {
          "internalType": "bytes",
          "name": "_extraData",
          "type": "bytes"
        }
      ],
      "name": "lzReceive",
      "outputs": [],
      "stateMutability": "payable",
      "type": "function"
    },
    {
      "inputs": [
        {
          "internalType": "uint32",
          "name": "",
          "type": "uint32"
        },
        {
          "internalType": "bytes32",
          "name": "",
          "type": "bytes32"
        }
      ],
      "name": "nextNonce",
      "outputs": [
        {
          "internalType": "uint64",
          "name": "nonce",
          "type": "uint64"
        }
      ],
      "stateMutability": "view",
      "type": "function"
    },
    {
      "inputs": [],
      "name": "oAppVersion",
      "outputs": [
        {
          "internalType": "uint64",
          "name": "senderVersion",
          "type": "uint64"
        },
        {
          "internalType": "uint64",
          "name": "receiverVersion",
          "type": "uint64"
        }
      ],
      "stateMutability": "pure",
      "type": "function"
    },
    {
      "inputs": [],
      "name": "owner",
      "outputs": [
        {
          "internalType": "address",
          "name": "",
          "type": "address"
        }
      ],
      "stateMutability": "view",
      "type": "function"
    },
    {
      "inputs": [
        {
          "internalType": "address",
          "name": "_token",
          "type": "address"
        },
        {
          "internalType": "uint256",
          "name": "_amount",
          "type": "uint256"
        }
      ],
      "name": "ownerDepositToken",
      "outputs": [],
      "stateMutability": "nonpayable",
      "type": "function"
    },
    {
      "inputs": [
        {
          "internalType": "address",
          "name": "_token",
          "type": "address"
        },
        {
          "internalType": "address",
          "name": "_to",
          "type": "address"
        },
        {
          "internalType": "uint256",
          "name": "_amount",
          "type": "uint256"
        }
      ],
      "name": "ownerWithdrawToken",
      "outputs": [],
      "stateMutability": "nonpayable",
      "type": "function"
    },
    {
      "inputs": [
        {
          "internalType": "uint32",
          "name": "eid",
          "type": "uint32"
        }
      ],
      "name": "peers",
      "outputs": [
        {
          "internalType": "bytes32",
          "name": "peer",
          "type": "bytes32"
        }
      ],
      "stateMutability": "view",
      "type": "function"
    },
    {
      "inputs": [
        {
          "internalType": "uint32",
          "name": "_dstEid",
          "type": "uint32"
        },
        {
          "internalType": "address",
          "name": "_srcToken",
          "type": "address"
        },
        {
          "internalType": "address",
          "name": "_merchant",
          "type": "address"
        },
        {
          "internalType": "uint256",
          "name": "_amount",
          "type": "uint256"
        },
        {
          "internalType": "bytes",
          "name": "_options",
          "type": "bytes"
        },
        {
          "internalType": "bool",
          "name": "_payInLzToken",
          "type": "bool"
        }
      ],
      "name": "quotePayoutToken",
      "outputs": [
        {
          "components": [
            {
              "internalType": "uint256",
              "name": "nativeFee",
              "type": "uint256"
            },
            {
              "internalType": "uint256",
              "name": "lzTokenFee",
              "type": "uint256"
            }
          ],
          "internalType": "struct MessagingFee",
          "name": "fee",
          "type": "tuple"
        }
      ],
      "stateMutability": "view",
      "type": "function"
    },
    {
      "inputs": [
        {
          "internalType": "uint32",
          "name": "_dstEid",
          "type": "uint32"
        },
        {
          "internalType": "string",
          "name": "_string",
          "type": "string"
        },
        {
          "internalType": "bytes",
          "name": "_options",
          "type": "bytes"
        },
        {
          "internalType": "bool",
          "name": "_payInLzToken",
          "type": "bool"
        }
      ],
      "name": "quoteSendString",
      "outputs": [
        {
          "components": [
            {
              "internalType": "uint256",
              "name": "nativeFee",
              "type": "uint256"
            },
            {
              "internalType": "uint256",
              "name": "lzTokenFee",
              "type": "uint256"
            }
          ],
          "internalType": "struct MessagingFee",
          "name": "fee",
          "type": "tuple"
        }
      ],
      "stateMutability": "view",
      "type": "function"
    },
    {
      "inputs": [
        {
          "internalType": "uint32",
          "name": "_dstEid",
          "type": "uint32"
        },
        {
          "internalType": "address",
          "name": "_srcToken",
          "type": "address"
        }
      ],
      "name": "removeTokenRoute",
      "outputs": [],
      "stateMutability": "nonpayable",
      "type": "function"
    },
    {
      "inputs": [],
      "name": "renounceOwnership",
      "outputs": [],
      "stateMutability": "nonpayable",
      "type": "function"
    },
    {
      "inputs": [
        {
          "internalType": "uint32",
          "name": "_dstEid",
          "type": "uint32"
        },
        {
          "internalType": "address",
          "name": "_srcToken",
          "type": "address"
        },
        {
          "internalType": "address",
          "name": "_merchant",
          "type": "address"
        },
        {
          "internalType": "uint256",
          "name": "_amount",
          "type": "uint256"
        },
        {
          "internalType": "bytes",
          "name": "_options",
          "type": "bytes"
        }
      ],
      "name": "requestPayoutToken",
      "outputs": [],
      "stateMutability": "payable",
      "type": "function"
    },
    {
      "inputs": [
        {
          "internalType": "uint32",
          "name": "_dstEid",
          "type": "uint32"
        },
        {
          "internalType": "string",
          "name": "_string",
          "type": "string"
        },
        {
          "internalType": "bytes",
          "name": "_options",
          "type": "bytes"
        }
      ],
      "name": "sendString",
      "outputs": [],
      "stateMutability": "payable",
      "type": "function"
    },
    {
      "inputs": [
        {
          "internalType": "address",
          "name": "_delegate",
          "type": "address"
        }
      ],
      "name": "setDelegate",
      "outputs": [],
      "stateMutability": "nonpayable",
      "type": "function"
    },
    {
      "inputs": [
        {
          "components": [
            {
              "internalType": "uint32",
              "name": "eid",
              "type": "uint32"
            },
            {
              "internalType": "uint16",
              "name": "msgType",
              "type": "uint16"
            },
            {
              "internalType": "bytes",
              "name": "options",
              "type": "bytes"
            }
          ],
          "internalType": "struct EnforcedOptionParam[]",
          "name": "_enforcedOptions",
          "type": "tuple[]"
        }
      ],
      "name": "setEnforcedOptions",
      "outputs": [],
      "stateMutability": "nonpayable",
      "type": "function"
    },
    {
      "inputs": [
        {
          "internalType": "uint32",
          "name": "_eid",
          "type": "uint32"
        },
        {
          "internalType": "bytes32",
          "name": "_peer",
          "type": "bytes32"
        }
      ],
      "name": "setPeer",
      "outputs": [],
      "stateMutability": "nonpayable",
      "type": "function"
    },
    {
      "inputs": [
        {
          "internalType": "uint32",
          "name": "_dstEid",
          "type": "uint32"
        },
        {
          "internalType": "address",
          "name": "_srcToken",
          "type": "address"
        },
        {
          "internalType": "address",
          "name": "_dstToken",
          "type": "address"
        }
      ],
      "name": "setTokenRoute",
      "outputs": [],
      "stateMutability": "nonpayable",
      "type": "function"
    },
    {
      "inputs": [
        {
          "internalType": "address",
          "name": "newOwner",
          "type": "address"
        }
      ],
      "name": "transferOwnership",
      "outputs": [],
      "stateMutability": "nonpayable",
      "type": "function"
    }
  ],
  "bytecode": "0x60a06040523480156200001157600080fd5b50604051620028133803806200281383398101604081905262000034916200017c565b81818181806001600160a01b0381166200006857604051631e4fbdf760e01b81526000600482015260240160405180910390fd5b62000073816200010f565b506001600160a01b038083166080528116620000a257604051632d618d8160e21b815260040160405180910390fd5b60805160405163ca5eb5e160e01b81526001600160a01b0383811660048301529091169063ca5eb5e190602401600060405180830381600087803b158015620000ea57600080fd5b505af1158015620000ff573d6000803e3d6000fd5b50505050505050505050620001b4565b600080546001600160a01b038381166001600160a01b0319831681178455604051919092169283917f8be0079c531659141344cd1fd0a4f28419497f9722a3daafe3b4186f6b6457e09190a35050565b80516001600160a01b03811681146200017757600080fd5b919050565b600080604083850312156200019057600080fd5b6200019b836200015f565b9150620001ab602084016200015f565b90509250929050565b608051612619620001fa600039600081816103a2015281816105e501528181610ef9015281816112d6015281816113f30152818161171601526117cf01526126196000f3fe6080604052600436106101c25760003560e01c80637d25a05e116100f7578063bb0b6a5311610095578063d3b4866e11610064578063d3b4866e14610563578063f2fde38b14610583578063f585b64f146105a3578063ff7bd03d146105c357600080fd5b8063bb0b6a53146104d2578063bc70b3541461050d578063bf333f2c1461052d578063ca5eb5e11461054357600080fd5b80638da5cb5b116100d15780638da5cb5b14610461578063975c860c1461047f578063abd917a214610492578063b98bd070146104b257600080fd5b80637d25a05e146103d957806382413eac14610411578063837c40201461044157600080fd5b806336ef96201161016457806350f2dde71161013e57806350f2dde7146103505780635535d461146103705780635e280f1114610390578063715018a6146103c457600080fd5b806336ef9620146102db57806338871250146102ee5780633e67ffac1461031557600080fd5b80631f5e1334116101a05780631f5e13341461025c578063329707101461028457806332da3d10146102a65780633400288b146102bb57600080fd5b806303dcb61e146101c757806313137d651461022557806317442b701461023a575b600080fd5b3480156101d357600080fd5b506102086101e23660046118da565b60046020908152600092835260408084209091529082529020546001600160a01b031681565b6040516001600160a01b0390911681526020015b60405180910390f35b610238610233366004611971565b6105e3565b005b34801561024657600080fd5b506040805160018152600260208201520161021c565b34801561026857600080fd5b50610271600181565b60405161ffff909116815260200161021c565b34801561029057600080fd5b506102996106a3565b60405161021c9190611a60565b3480156102b257600080fd5b50610271600281565b3480156102c757600080fd5b506102386102d6366004611a7a565b610731565b6102386102e9366004611aa4565b610747565b3480156102fa57600080fd5b50610303606581565b60405160ff909116815260200161021c565b34801561032157600080fd5b50610335610330366004611b34565b61079b565b6040805182518152602092830151928101929092520161021c565b34801561035c57600080fd5b5061023861036b366004611bc7565b610885565b34801561037c57600080fd5b5061029961038b366004611c22565b610924565b34801561039c57600080fd5b506102087f000000000000000000000000000000000000000000000000000000000000000081565b3480156103d057600080fd5b50610238610948565b3480156103e557600080fd5b506103f96103f4366004611a7a565b61095c565b6040516001600160401b03909116815260200161021c565b34801561041d57600080fd5b5061043161042c366004611c55565b610965565b604051901515815260200161021c565b34801561044d57600080fd5b5061023861045c366004611cbb565b61097a565b34801561046d57600080fd5b506000546001600160a01b0316610208565b61023861048d366004611cd9565b610997565b34801561049e57600080fd5b506102386104ad3660046118da565b610cce565b3480156104be57600080fd5b506102386104cd366004611d5b565b610d10565b3480156104de57600080fd5b506104ff6104ed366004611dcf565b60016020526000908152604090205481565b60405190815260200161021c565b34801561051957600080fd5b50610299610528366004611dea565b610d2a565b34801561053957600080fd5b5061027161012c81565b34801561054f57600080fd5b5061023861055e366004611e4a565b610ed2565b34801561056f57600080fd5b5061033561057e366004611e67565b610f58565b34801561058f57600080fd5b5061023861059e366004611e4a565b610fb6565b3480156105af57600080fd5b506102386105be366004611ef6565b610ff4565b3480156105cf57600080fd5b506104316105de366004611f37565b611054565b7f00000000000000000000000000000000000000000000000000000000000000006001600160a01b03163314610633576040516391ac5e4f60e01b81523360048201526024015b60405180910390fd5b6020870180359061064d90610648908a611dcf565b61108a565b1461068b5761065f6020880188611dcf565b60405163309afaf360e21b815263ffffffff90911660048201526020880135602482015260440161062a565b61069a878787878787876110c6565b50505050505050565b600380546106b090611f53565b80601f01602080910402602001604051908101604052809291908181526020018280546106dc90611f53565b80156107295780601f106106fe57610100808354040283529160200191610729565b820191906000526020600020905b81548152906001019060200180831161070c57829003601f168201915b505050505081565b610739611221565b610743828261124e565b5050565b6000848460405160200161075c929190611fb0565b604051602081830303815290604052905061069a868261077f8960018888610d2a565b60405180604001604052803481526020016000815250336112a3565b6040805180820182526000808252602080830182905263ffffffff8b168252600481528382206001600160a01b038b81168452915292902054909116806108145760405162461bcd60e51b815260206004820152600d60248201526c726f757465206d697373696e6760981b604482015260640161062a565b600061081f876113ae565b5060408051606560208201526001600160a01b03858116828401528b16606082015260808082018490528251808303909101815260a09091019091529091506108768b826108708260028c8c610d2a565b886113dd565b9b9a5050505050505050505050565b61088d611221565b6001600160a01b038216158015906108ad57506001600160a01b03811615155b6108e35760405162461bcd60e51b81526020600482015260076024820152660746f6b656e3d360cc1b604482015260640161062a565b63ffffffff9290921660009081526004602090815260408083206001600160a01b039485168452909152902080546001600160a01b03191691909216179055565b6002602090815260009283526040808420909152908252902080546106b090611f53565b610950611221565b61095a60006114be565b565b60005b92915050565b6001600160a01b03811630145b949350505050565b610982611221565b6107436001600160a01b03831633308461150e565b6001600160a01b0385166109db5760405162461bcd60e51b815260206004820152600b60248201526a073726320746f6b656e3d360ac1b604482015260640161062a565b6001600160a01b038416610a1e5760405162461bcd60e51b815260206004820152600a60248201526906d65726368616e743d360b41b604482015260640161062a565b60008311610a595760405162461bcd60e51b81526020600482015260086024820152670616d6f756e743d360c41b604482015260640161062a565b63ffffffff861660009081526004602090815260408083206001600160a01b03808a1685529252909120541680610ac25760405162461bcd60e51b815260206004820152600d60248201526c726f757465206d697373696e6760981b604482015260640161062a565b610ad76001600160a01b03871633308761150e565b600080610ae3866113ae565b60408051606560208201526001600160a01b03878116828401528b16606082015260808082018590528251808303909101815260a090910190915291935091506000610b3e8b83610b378260028c8c610d2a565b60006113dd565b805190915034811115610b6d57604051631f2dda7760e21b81523460048201526024810182905260440161062a565b610b9a8c84610b7f8f60028d8d610d2a565b604080518082019091528651815260006020820152336112a3565b506000610ba78234611fda565b90508015610c3957604051600090339083908381818185875af1925050503d8060008114610bf1576040519150601f19603f3d011682016040523d82523d6000602084013e610bf6565b606091505b5050905080610c375760405162461bcd60e51b815260206004820152600d60248201526c1c99599d5b990819985a5b1959609a1b604482015260640161062a565b505b8a6001600160a01b0316336001600160a01b03168e63ffffffff167fdd9e34114af31ed8b7896e826d4d77f69661c83c3fb0dfde856e2de1170346018f8b8f8c8c604051610cb79594939291906001600160a01b03958616815293909416602084015260408301919091526060820152608081019190915260a00190565b60405180910390a450505050505050505050505050565b610cd6611221565b63ffffffff90911660009081526004602090815260408083206001600160a01b0390941683529290522080546001600160a01b0319169055565b610d18611221565b610743610d2582846120b2565b61157b565b63ffffffff8416600090815260026020908152604080832061ffff87168452909152812080546060929190610d5e90611f53565b80601f0160208091040260200160405190810160405280929190818152602001828054610d8a90611f53565b8015610dd75780601f10610dac57610100808354040283529160200191610dd7565b820191906000526020600020905b815481529060010190602001808311610dba57829003601f168201915b505050505090508051600003610e275783838080601f0160208091040260200160405190810160405280939291908181526020018383808284376000920191909152509294506109729350505050565b6000839003610e37579050610972565b60028310610eb557610e7e84848080601f01602080910402602001604051908101604052809392919081815260200183838082843760009201919091525061168d92505050565b80610e8c846002818861219a565b604051602001610e9e939291906121c4565b604051602081830303815290604052915050610972565b8383604051639a6d49cd60e01b815260040161062a929190611fb0565b610eda611221565b60405163ca5eb5e160e01b81526001600160a01b0382811660048301527f0000000000000000000000000000000000000000000000000000000000000000169063ca5eb5e190602401600060405180830381600087803b158015610f3d57600080fd5b505af1158015610f51573d6000803e3d6000fd5b5050505050565b604080518082019091526000808252602082015260008686604051602001610f81929190611fb0565b6040516020818303038152906040529050610faa8882610fa48b60018a8a610d2a565b866113dd565b98975050505050505050565b610fbe611221565b6001600160a01b038116610fe857604051631e4fbdf760e01b81526000600482015260240161062a565b610ff1816114be565b50565b610ffc611221565b6001600160a01b03821661103b5760405162461bcd60e51b815260040161062a906020808252600490820152630746f3d360e41b604082015260600190565b61104f6001600160a01b03841683836116b9565b505050565b600060208201803590600190839061106c9086611dcf565b63ffffffff1681526020810191909152604001600020541492915050565b63ffffffff81166000908152600160205260408120548061095f5760405163f6ff4fb760e01b815263ffffffff8416600482015260240161062a565b60808490036111fa5760008080806110e0888a018a6121ec565b9350935093509350606560ff168460ff16036111f5576040516370a0823160e01b815230600482015283906000906001600160a01b038316906370a0823190602401602060405180830381865afa15801561113f573d6000803e3d6000fd5b505050506040513d601f19601f820116820180604052508101906111639190612243565b9050828110156111905760405163a17e11d560e01b8152600481018490526024810182905260440161062a565b6111a46001600160a01b03831685856116b9565b604080516001600160a01b038781168252602082018690528616917f2e6e04a8b2c1647c89193b83e490574a4ddedb4ce7a402f93453cd40b67a8402910160405180910390a250505050505061069a565b505050505b60006112088587018761225c565b9050600361121682826122f4565b505050505050505050565b6000546001600160a01b0316331461095a5760405163118cdaa760e01b815233600482015260240161062a565b63ffffffff8216600081815260016020908152604091829020849055815192835282018390527f238399d427b947898edb290f5ff0f9109849b1c3ba196a42e35f00c50a54b98b910160405180910390a15050565b6112ab611865565b60006112ba84600001516116ea565b6020850151909150156112d4576112d48460200151611712565b7f00000000000000000000000000000000000000000000000000000000000000006001600160a01b0316632637a450826040518060a001604052808b63ffffffff1681526020016113248c61108a565b81526020018a815260200189815260200160008960200151111515815250866040518463ffffffff1660e01b81526004016113609291906123b3565b60806040518083038185885af115801561137e573d6000803e3d6000fd5b50505050506040513d601f19601f820116820180604052508101906113a3919061247a565b979650505050505050565b6000806127106113c061012c856124d0565b6113ca91906124e7565b90506113d68184611fda565b9150915091565b60408051808201909152600080825260208201527f00000000000000000000000000000000000000000000000000000000000000006001600160a01b031663ddc28c586040518060a001604052808863ffffffff1681526020016114408961108a565b8152602001878152602001868152602001851515815250306040518363ffffffff1660e01b81526004016114759291906123b3565b6040805180830381865afa158015611491573d6000803e3d6000fd5b505050506040513d601f19601f820116820180604052508101906114b59190612509565b95945050505050565b600080546001600160a01b038381166001600160a01b0319831681178455604051919092169283917f8be0079c531659141344cd1fd0a4f28419497f9722a3daafe3b4186f6b6457e09190a35050565b6040516001600160a01b0384811660248301528381166044830152606482018390526115759186918216906323b872dd906084015b604051602081830303815290604052915060e01b6020820180516001600160e01b0383818316178352505050506117f4565b50505050565b60005b8151811015611652576115ad82828151811061159c5761159c612525565b60200260200101516040015161168d565b8181815181106115bf576115bf612525565b602002602001015160400151600260008484815181106115e1576115e1612525565b60200260200101516000015163ffffffff1663ffffffff168152602001908152602001600020600084848151811061161b5761161b612525565b60200260200101516020015161ffff1661ffff168152602001908152602001600020908161164991906122f4565b5060010161157e565b507fbe4864a8e820971c0247f5992e2da559595f7bf076a21cb5928d443d2a13b67481604051611682919061253b565b60405180910390a150565b600281015161ffff81166003146107435781604051639a6d49cd60e01b815260040161062a9190611a60565b6040516001600160a01b0383811660248301526044820183905261104f91859182169063a9059cbb90606401611543565b600081341461170e576040516304fb820960e51b815234600482015260240161062a565b5090565b60007f00000000000000000000000000000000000000000000000000000000000000006001600160a01b031663e4fe1d946040518163ffffffff1660e01b8152600401602060405180830381865afa158015611772573d6000803e3d6000fd5b505050506040513d601f19601f8201168201806040525081019061179691906125c6565b90506001600160a01b0381166117bf576040516329b99a9560e11b815260040160405180910390fd5b6107436001600160a01b038216337f00000000000000000000000000000000000000000000000000000000000000008561150e565b600080602060008451602086016000885af180611817576040513d6000823e3d81fd5b50506000513d9150811561182f57806001141561183c565b6001600160a01b0384163b155b1561157557604051635274afe760e01b81526001600160a01b038516600482015260240161062a565b60405180606001604052806000801916815260200160006001600160401b031681526020016118a7604051806040016040528060008152602001600081525090565b905290565b803563ffffffff811681146118c057600080fd5b919050565b6001600160a01b0381168114610ff157600080fd5b600080604083850312156118ed57600080fd5b6118f6836118ac565b91506020830135611906816118c5565b809150509250929050565b60006060828403121561192357600080fd5b50919050565b60008083601f84011261193b57600080fd5b5081356001600160401b0381111561195257600080fd5b60208301915083602082850101111561196a57600080fd5b9250929050565b600080600080600080600060e0888a03121561198c57600080fd5b6119968989611911565b96506060880135955060808801356001600160401b03808211156119b957600080fd5b6119c58b838c01611929565b909750955060a08a013591506119da826118c5565b90935060c089013590808211156119f057600080fd5b506119fd8a828b01611929565b989b979a50959850939692959293505050565b60005b83811015611a2b578181015183820152602001611a13565b50506000910152565b60008151808452611a4c816020860160208601611a10565b601f01601f19169290920160200192915050565b602081526000611a736020830184611a34565b9392505050565b60008060408385031215611a8d57600080fd5b611a96836118ac565b946020939093013593505050565b600080600080600060608688031215611abc57600080fd5b611ac5866118ac565b945060208601356001600160401b0380821115611ae157600080fd5b611aed89838a01611929565b90965094506040880135915080821115611b0657600080fd5b50611b1388828901611929565b969995985093965092949392505050565b803580151581146118c057600080fd5b600080600080600080600060c0888a031215611b4f57600080fd5b611b58886118ac565b96506020880135611b68816118c5565b95506040880135611b78816118c5565b94506060880135935060808801356001600160401b03811115611b9a57600080fd5b611ba68a828b01611929565b9094509250611bb9905060a08901611b24565b905092959891949750929550565b600080600060608486031215611bdc57600080fd5b611be5846118ac565b92506020840135611bf5816118c5565b91506040840135611c05816118c5565b809150509250925092565b803561ffff811681146118c057600080fd5b60008060408385031215611c3557600080fd5b611c3e836118ac565b9150611c4c60208401611c10565b90509250929050565b60008060008060a08587031215611c6b57600080fd5b611c758686611911565b935060608501356001600160401b03811115611c9057600080fd5b611c9c87828801611929565b9094509250506080850135611cb0816118c5565b939692955090935050565b60008060408385031215611cce57600080fd5b8235611a96816118c5565b60008060008060008060a08789031215611cf257600080fd5b611cfb876118ac565b95506020870135611d0b816118c5565b94506040870135611d1b816118c5565b93506060870135925060808701356001600160401b03811115611d3d57600080fd5b611d4989828a01611929565b979a9699509497509295939492505050565b60008060208385031215611d6e57600080fd5b82356001600160401b0380821115611d8557600080fd5b818501915085601f830112611d9957600080fd5b813581811115611da857600080fd5b8660208260051b8501011115611dbd57600080fd5b60209290920196919550909350505050565b600060208284031215611de157600080fd5b611a73826118ac565b60008060008060608587031215611e0057600080fd5b611e09856118ac565b9350611e1760208601611c10565b925060408501356001600160401b03811115611e3257600080fd5b611e3e87828801611929565b95989497509550505050565b600060208284031215611e5c57600080fd5b8135611a73816118c5565b60008060008060008060808789031215611e8057600080fd5b611e89876118ac565b955060208701356001600160401b0380821115611ea557600080fd5b611eb18a838b01611929565b90975095506040890135915080821115611eca57600080fd5b50611ed789828a01611929565b9094509250611eea905060608801611b24565b90509295509295509295565b600080600060608486031215611f0b57600080fd5b8335611f16816118c5565b92506020840135611f26816118c5565b929592945050506040919091013590565b600060608284031215611f4957600080fd5b611a738383611911565b600181811c90821680611f6757607f821691505b60208210810361192357634e487b7160e01b600052602260045260246000fd5b81835281816020850137506000828201602090810191909152601f909101601f19169091010190565b602081526000610972602083018486611f87565b634e487b7160e01b600052601160045260246000fd5b8181038181111561095f5761095f611fc4565b634e487b7160e01b600052604160045260246000fd5b604051606081016001600160401b038111828210171561202557612025611fed565b60405290565b604051601f8201601f191681016001600160401b038111828210171561205357612053611fed565b604052919050565b60006001600160401b0383111561207457612074611fed565b612087601f8401601f191660200161202b565b905082815283838301111561209b57600080fd5b828260208301376000602084830101529392505050565b60006001600160401b03808411156120cc576120cc611fed565b8360051b60206120dd81830161202b565b8681529185019181810190368411156120f557600080fd5b865b8481101561218e5780358681111561210f5760008081fd5b880160603682900312156121235760008081fd5b61212b612003565b612134826118ac565b8152612141868301611c10565b86820152604080830135898111156121595760008081fd5b929092019136601f84011261216e5760008081fd5b61217c36843589860161205b565b908201528452509183019183016120f7565b50979650505050505050565b600080858511156121aa57600080fd5b838611156121b757600080fd5b5050820193919092039150565b600084516121d6818460208901611a10565b8201838582376000930192835250909392505050565b6000806000806080858703121561220257600080fd5b843560ff8116811461221357600080fd5b93506020850135612223816118c5565b92506040850135612233816118c5565b9396929550929360600135925050565b60006020828403121561225557600080fd5b5051919050565b60006020828403121561226e57600080fd5b81356001600160401b0381111561228457600080fd5b8201601f8101841361229557600080fd5b6109728482356020840161205b565b601f82111561104f576000816000526020600020601f850160051c810160208610156122cd5750805b601f850160051c820191505b818110156122ec578281556001016122d9565b505050505050565b81516001600160401b0381111561230d5761230d611fed565b6123218161231b8454611f53565b846122a4565b602080601f831160018114612356576000841561233e5750858301515b600019600386901b1c1916600185901b1785556122ec565b600085815260208120601f198616915b8281101561238557888601518255948401946001909101908401612366565b50858210156123a35787850151600019600388901b60f8161c191681555b5050505050600190811b01905550565b6040815263ffffffff8351166040820152602083015160608201526000604084015160a060808401526123e960e0840182611a34565b90506060850151603f198483030160a08501526124068282611a34565b60809690960151151560c08501525050506001600160a01b039190911660209091015290565b60006040828403121561243e57600080fd5b604051604081018181106001600160401b038211171561246057612460611fed565b604052825181526020928301519281019290925250919050565b60006080828403121561248c57600080fd5b612494612003565b8251815260208301516001600160401b03811681146124b257600080fd5b60208201526124c4846040850161242c565b60408201529392505050565b808202811582820484141761095f5761095f611fc4565b60008261250457634e487b7160e01b600052601260045260246000fd5b500490565b60006040828403121561251b57600080fd5b611a73838361242c565b634e487b7160e01b600052603260045260246000fd5b600060208083018184528085518083526040925060408601915060408160051b87010184880160005b838110156125b857888303603f190185528151805163ffffffff1684528781015161ffff168885015286015160608785018190526125a481860183611a34565b968901969450505090860190600101612564565b509098975050505050505050565b6000602082840312156125d857600080fd5b8151611a73816118c556fea2646970667358221220877718385bdea323a9f9a10cea12ae23b4c1f1342f5f402cf3317cec2e44755864736f6c63430008160033",
  "linkReferences": {},
  "deployedLinkReferences": {}
}